:100000000C942A000C94F4020C9414030C944700F2
:100010000C9447000C9447000C9447000C94470044
:100020000C9447000C94C8020C9447000C944700B1
:100030000C9447000C9447000C9447000C94470024
:100040000C9447000C9447000C9447000C94470014
:100050000C94470011241FBECFE5D4E0DEBFCDBF16
:1000600011E0A0E6B0E0ECEDF3E302C005900D92E4
:10007000AE3EB107D9F712E0AEEEB1E001C01D927D
:10008000A933B107E1F70E94F00A0C94EC190C9423
:100090000000DF93CF93CDB7DEB7A7E3B0E0E7E38F
:1000A000F0E08081886B8C93A7E3B0E0E7E3F0E0B9
:1000B00080818B7B8C93ADE2B0E0EDE2F0E080815B
:1000C00080658C93CF91DF910895DF93CF9300D01B
:1000D000CDB7DEB78A83EFE2F0E08A818083EEE27B
:1000E000F0E080818823DCF7EFE2F0E08081898313
:1000F00089810F900F90CF91DF910895DF93CF9377
:10010000CDB7DEB7A7E3B0E0E7E3F0E08081886B2E
:100110008C93A7E3B0E0E7E3F0E080818B7B8C93E6
:10012000A8E3B0E0E8E3F0E0808180618C93CF91B8
:10013000DF910895DF93CF93CDB7DEB72E970FB63B
:10014000F894DEBF0FBECDBFA8E3B0E0E8E3F0E077
:100150008081877F8C93A8E3B0E0E8E3F0E08081C2
:100160008F7E8C9380E20E94650082E10E94650090
:10017000A8E3B0E0E8E3F0E0808180618C93A8E33D
:10018000B0E0E8E3F0E0808188608C9380E090E06C
:10019000A0E8BFE38B879C87AD87BE876B857C8596
:1001A0008D859E8520E030E04AEF54E40E942C14B7
:1001B000DC01CB018F839887A987BA876F81788507
:1001C00089859A8520E030E040E85FE30E9432169E
:1001D00088232CF481E090E09E838D833FC06F8163
:1001E000788589859A8520E03FEF4FE757E40E94A4
:1001F000D21518164CF56B857C858D859E8520E083
:1002000030E040E251E40E942C14DC01CB01BC013F
:10021000CD010E945612DC01CB019E838D830FC05D
:1002200088EC90E09C838B838B819C810197F1F714
:100230009C838B838D819E8101979E838D838D818D
:100240009E81009769F714C06F81788589859A85AA
:100250000E945612DC01CB019E838D838D819E818D
:100260009A83898389819A810197F1F79A83898397
:100270002E960FB6F894DEBF0FBECDBFCF91DF91A3
:100280000895DF93CF93CDB7DEB72E970FB6F894CE
:10029000DEBF0FBECDBFA8E3B0E0E8E3F0E08081B1
:1002A00088608C93A8E3B0E0E8E3F0E080818F7E83
:1002B0008C9380E20E94650083E10E946500A8E3C0
:1002C000B0E0E8E3F0E0808180618C9380E090E032
:1002D000A0E0B0E48B879C87AD87BE876B857C856B
:1002E0008D859E8520E030E04AEF54E40E942C1476
:1002F000DC01CB018F839887A987BA876F817885C6
:1003000089859A8520E030E040E85FE30E9432165C
:1003100088232CF481E090E09E838D833FC06F8121
:10032000788589859A8520E03FEF4FE757E40E9462
:10033000D21518164CF56B857C858D859E8520E041
:1003400030E040E251E40E942C14DC01CB01BC01FE
:10035000CD010E945612DC01CB019E838D830FC01C
:1003600088EC90E09C838B838B819C810197F1F7D3
:100370009C838B838D819E8101979E838D838D814C
:100380009E81009769F714C06F81788589859A8569
:100390000E945612DC01CB019E838D838D819E814C
:1003A0009A83898389819A810197F1F79A83898356
:1003B0002E960FB6F894DEBF0FBECDBFCF91DF9162
:1003C0000895DF93CF93CDB7DEB7A8E3B0E0E8E3BD
:1003D000F0E08081877F8C93CF91DF910895DF9348
:1003E000CF9300D0CDB7DEB78A83A8E3B0E0E8E3CF
:1003F000F0E080818F7E8C9381EE0E946500A8E3FF
:10040000B0E0E8E3F0E0808180618C93A8E3B0E0A5
:10041000E8E3F0E080818F7E8C9380EA0E946500A3
:1004200019820CC08981882F90E0FC01E05AFF4FAF
:1004300080810E94650089818F5F898399818A818B
:10044000981780F3A8E3B0E0E8E3F0E080818061F2
:100450008C930F900F90CF91DF9108950F931F937E
:10046000DF93CF9300D0CDB7DEB78A83A8E3B0E0A7
:10047000E8E3F0E080818F7E8C9381E60E94650046
:1004800019820DC08981082F10E08FEF0E9465004E
:10049000F801E251FE4F808389818F5F89839981C2
:1004A0008A81981778F3A8E3B0E0E8E3F0E0808170
:1004B00080618C93A8E3B0E0E8E3F0E080818F7E78
:1004C0008C9382EE0E946500A8E3B0E0E8E3F0E0E0
:1004D000808180618C930F900F90CF91DF911F915D
:1004E0000F910895DF93CF930F92CDB7DEB7A8E3B6
:1004F000B0E0E8E3F0E080818F7E8C9387E00E949B
:1005000065008983A8E3B0E0E8E3F0E080818061E2
:100510008C9389810F90CF91DF910895DF93CF93D2
:100520000F92CDB7DEB78983A8E3B0E0E8E3F0E04F
:1005300080818F7E8C9387E20E94650089810E9472
:100540006500A8E3B0E0E8E3F0E0808180618C938F
:100550000F90CF91DF910895DF93CF93CDB7DEB7A2
:10056000A1E3B0E0E1E3F0E080818F7C8C93A1E334
:10057000B0E0E1E3F0E08081806C8C93A2E3B0E036
:10058000E2E3F0E08081806C8C93CF91DF9108955D
:1005900078941F920F920FB60F9211248F939F930E
:1005A000AF93BF93DF93CF93CDB7DEB780911002A7
:1005B00090911102A0911202B09113020196A11D17
:1005C000B11D8093100290931102A0931202B09378
:1005D0001302CF91DF91BF91AF919F918F910F90B7
:1005E0000FBE0F901F90189578941F920F920FB620
:1005F0000F921124EF93FF93DF93CF93CDB7DEB724
:10060000E2E5F0E0108210921002109211021092B6
:10061000120210921302CF91DF91FF91EF910F9090
:100620000FBE0F901F90189578941F920F920FB6DF
:100630000F9211242F933F934F935F936F937F9368
:100640008F939F93AF93BF93EF93FF93DF93CF93DA
:10065000CDB7DEB78091100290911102A0911202E5
:10066000B09113022227382F492F5A2FE2E5F0E0EC
:100670008081882F90E0A0E0B0E0820F931FA41F3C
:10068000B51FBC01CD010E941417DC01CB01BC01D8
:10069000CD012FE632E143E05DE30E942C14DC0142
:1006A000CB01BC01CD0120E030E040E85EE30E94D8
:1006B000CE13DC01CB01BC01CD0120E030E04AEAE1
:1006C00053E40E942C14DC01CB01BC01CD0120E0DD
:1006D00030E040E050E40E942615DC01CB0180931D
:1006E0002B0290932C02A0932D02B0932E02CF9157
:1006F000DF91FF91EF91BF91AF919F918F917F918A
:100700006F915F914F913F912F910F900FBE0F907E
:100710001F901895DF93CF930F92CDB7DEB7F89463
:10072000A5E5B0E0E5E5F0E0808183608C93A5E588
:10073000B0E0E5E5F0E0808188608C93ABE5B0E067
:10074000EBE5F0E0808180648C93ABE5B0E0EBE515
:10075000F0E0808180688C93A3E5B0E0E3E5F0E011
:10076000808184608C93A9E5B0E0E9E5F0E08081C8
:1007700081608C93E2E5F0E01082A7E3B0E0E7E36C
:10078000F0E0808181608C93ABE3B0E0EBE3F0E0DC
:10079000808181608C93EAE3F0E08081EAE3F0E01D
:1007A0008FEF8083A1E3B0E0E1E3F0E08081837F1D
:1007B0008C9378940F90CF91DF910895EF92FF92F0
:1007C0000F931F93DF93CF93CDB7DEB7A6970FB6E6
:1007D000F894DEBF0FBECDBFABE3B0E0EBE3F0E0DB
:1007E00080818E7F8C9380E090E0A0E2B1E48BA3C7
:1007F0009CA3ADA3BEA36BA17CA18DA19EA12BEA5E
:100800003AEA4AE250E40E942C14DC01CB018F8FBB
:1008100098A3A9A3BAA36F8D78A189A19AA120E07A
:1008200030E040E85FE30E94321688231CF481E048
:100830008E8F91C06F8D78A189A19AA120E030E0C0
:100840004FE753E40E94D21518160CF07BC06BA141
:100850007CA18DA19EA120E030E04AE754E40E94F3
:100860002615DC01CB018A8F9B8FAC8FBD8F6A8DE3
:100870007B8D8C8D9D8D20E030E04AEF54E40E940A
:100880002C14DC01CB018E8B9F8BA88FB98F6E89C6
:100890007F89888D998D20E030E040E85FE30E94F9
:1008A000321688232CF481E090E09D8B8C8B3FC026
:1008B0006E897F89888D998D20E03FEF4FE757E45F
:1008C0000E94D21518164CF56A8D7B8D8C8D9D8DEE
:1008D00020E030E040E251E40E942C14DC01CB0126
:1008E000BC01CD010E945612DC01CB019D8B8C8B8B
:1008F0000FC088EC90E09B8B8A8B8A899B8901973B
:10090000F1F79B8B8A8B8C899D8901979D8B8C8BB2
:100910008C899D89009769F724C06E897F89888DAD
:10092000998D0E945612DC01CB019D8B8C8B8C899A
:100930009D89998B888B888999890197F1F7998B83
:10094000888B0FC06F8D78A189A19AA10E94561241
:10095000DC01CB018E8F8E8D8F878F858A95F1F785
:100960008F87ABE3B0E0EBE3F0E0808181608C93B4
:1009700080E090E0A8ECB2E48B879C87AD87BE87CF
:100980006B857C858D859E8520E030E04AEF54E4C0
:100990000E942C14DC01CB018F839887A987BA872A
:1009A0006F81788589859A8520E030E040E85FE3B3
:1009B0000E94321688232CF481E090E09E838D8380
:1009C0003FC06F81788589859A8520E03FEF4FE7AA
:1009D00057E40E94D21518164CF56B857C858D85E1
:1009E0009E8520E030E040E251E40E942C14DC01BE
:1009F000CB01BC01CD010E945612DC01CB019E83CC
:100A00008D830FC088EC90E09C838B838B819C81CD
:100A10000197F1F79C838B838D819E8101979E8343
:100A20008D838D819E81009769F714C06F817885D1
:100A300089859A850E945612DC01CB019E838D83A5
:100A40008D819E819A83898389819A810197F1F7AB
:100A50009A83898380912B0290912C02A0912D0280
:100A6000B0912E02BC01CD010E945612DC01CB01D7
:100A7000882F90E028EE33E0B9010E948E19CB0157
:100A800080933302E0902B02F0902C0200912D0213
:100A900010912E0280913302282F30E088EE93E0EF
:100AA000AC01249FC001259F900D349F900D11240F
:100AB000AA2797FDA095BA2FBC01CD010E9462160E
:100AC0009B01AC01C801B7010E94CE13DC01CB0130
:100AD000BC01CD010E945612DC01CB0194E6692FC6
:100AE0000E94821980931A02E0902B02F0902C024F
:100AF00000912D0210912E0280913302282F30E0B8
:100B000088EE93E0AC01249FC001259F900D349F97
:100B1000900D1124AA2797FDA095BA2FBC01CD01F5
:100B20000E9462169B01AC01C801B7010E94CE135E
:100B3000DC01CB017C018D0180911A02282F30E06D
:100B400084E690E0AC01249FC001259F900D349F66
:100B5000900D1124AA2797FDA095BA2FBC01CD01B5
:100B60000E9462169B01AC01C801B7010E94CE131E
:100B7000DC01CB01BC01CD010E945612DC01CB018E
:100B80009AE0692F0E94821980931502E0902B024F
:100B9000F0902C0200912D0210912E0280913302D0
:100BA000282F30E088EE93E0AC01249FC001259F00
:100BB000900D349F900D1124AA2797FDA095BA2F70
:100BC000BC01CD010E9462169B01AC01C801B701B6
:100BD0000E94CE13DC01CB017C018D0180911A02B1
:100BE000282F30E084E690E0AC01249FC001259FCF
:100BF000900D349F900D1124AA2797FDA095BA2F30
:100C0000BC01CD010E9462169B01AC01C801B70175
:100C10000E94CE13DC01CB017C018D018091150275
:100C2000882F90E09C01220F331FC901880F991F64
:100C3000880F991F820F931FAA2797FDA095BA2F9F
:100C4000BC01CD010E9462169B01AC01C801B70135
:100C50000E94CE13DC01CB01BC01CD010E945612D3
:100C6000DC01CB0180933402A6960FB6F894DEBF68
:100C70000FBECDBFCF91DF911F910F91FF90EF90ED
:100C80000895DF93CF93CDB7DEB7E8970FB6F8940A
:100C9000DEBF0FBECDBF80913202813609F019C18F
:100CA00080E80E94F30F10922F0281C080912F02E2
:100CB000882F90E0FC01EB57FF4F80810E940D11BF
:100CC00080E090E0A0EAB0E48DAB9EABAFABB8AFF4
:100CD0006DA97EA98FA998AD20E030E04AEF54E4D9
:100CE0000E942C14DC01CB0189AB9AABABABBCAB43
:100CF00069A97AA98BA99CA920E030E040E85FE3CC
:100D00000E94321688232CF481E090E098AB8FA7E4
:100D10003FC069A97AA98BA99CA920E03FEF4FE7C2
:100D200057E40E94D21518164CF56DA97EA98FA91B
:100D300098AD20E030E040E251E40E942C14DC0148
:100D4000CB01BC01CD010E945612DC01CB0198AB56
:100D50008FA70FC088EC90E09EA78DA78DA59EA5BC
:100D60000197F1F79EA78DA78FA598A9019798AB3A
:100D70008FA78FA598A9009769F714C069A97AA9C8
:100D80008BA99CA90E945612DC01CB0198AB8FA7BE
:100D90008FA598A99CA78BA78BA59CA50197F1F778
:100DA0009CA78BA780912F028F5F80932F02809149
:100DB0002F028F3008F47ACF80EC0E94F30F10924C
:100DC0002F0281C080912F02882F90E0FC01EB560A
:100DD000FF4F80810E940D1180E090E0A0EAB0E416
:100DE0008FA398A7A9A7BAA76FA178A589A59AA547
:100DF00020E030E04AEF54E40E942C14DC01CB01E7
:100E00008BA39CA3ADA3BEA36BA17CA18DA19EA12E
:100E100020E030E040E85FE30E94321688232CF4A3
:100E200081E090E09AA389A33FC06BA17CA18DA132
:100E30009EA120E03FEF4FE757E40E94D21518161D
:100E40004CF56FA178A589A59AA520E030E040E295
:100E500051E40E942C14DC01CB01BC01CD010E94A5
:100E60005612DC01CB019AA389A30FC088EC90E055
:100E700098A38F8F8F8D98A10197F1F798A38F8FEB
:100E800089A19AA101979AA389A389A19AA1009700
:100E900069F714C06BA17CA18DA19EA10E9456127E
:100EA000DC01CB019AA389A389A19AA19E8F8D8F82
:100EB0008D8D9E8D0197F1F79E8F8D8F80912F02E2
:100EC0008F5F80932F0280912F028F3008F47ACFAA
:100ED00018C180E80E94F30F10922F0281C0809108
:100EE0002F02882F90E0FC01EB57FF4F80810E947A
:100EF0000D1180E090E0A0EAB0E4898F9A8FAB8F6B
:100F0000BC8F698D7A8D8B8D9C8D20E030E04AEF0F
:100F100054E40E942C14DC01CB018D8B9E8BAF8B93
:100F2000B88F6D897E898F89988D20E030E040E808
:100F30005FE30E94321688232CF481E090E09C8BC2
:100F40008B8B3FC06D897E898F89988D20E03FEF24
:100F50004FE757E40E94D21518164CF5698D7A8D2B
:100F60008B8D9C8D20E030E040E251E40E942C14F7
:100F7000DC01CB01BC01CD010E945612DC01CB018A
:100F80009C8B8B8B0FC088EC90E09A8B898B898926
:100F90009A890197F1F79A8B898B8B899C890197A4
:100FA0009C8B8B8B8B899C89009769F714C06D890A
:100FB0007E898F89988D0E945612DC01CB019C8B13
:100FC0008B8B8B899C89988B8F878F8598890197CC
:100FD000F1F7988B8F8780912F028F5F80932F027C
:100FE00080912F028F3008F47ACF80EC0E94F30FAB
:100FF00010922F0281C080912F02882F90E0FC0177
:10100000EB55FF4F80810E940D1180E090E0A0EA37
:10101000B0E48B879C87AD87BE876B857C858D858B
:101020009E8520E030E04AEF54E40E942C14DC015D
:10103000CB018F839887A987BA876F817885898547
:101040009A8520E030E040E85FE30E943216882372
:101050002CF481E090E09E838D833FC06F81788582
:1010600089859A8520E03FEF4FE757E40E94D2152B
:1010700018164CF56B857C858D859E8520E030E0CB
:1010800040E251E40E942C14DC01CB01BC01CD01F3
:101090000E945612DC01CB019E838D830FC088EC29
:1010A00090E09C838B838B819C810197F1F79C83DB
:1010B0008B838D819E8101979E838D838D819E81FF
:1010C000009769F714C06F81788589859A850E9499
:1010D0005612DC01CB019E838D838D819E819A8384
:1010E000898389819A810197F1F79A838983809115
:1010F0002F028F5F80932F0280912F028F3008F490
:101100007ACFE8960FB6F894DEBF0FBECDBFCF9171
:10111000DF910895DF93CF93CDB7DEB76C970FB60D
:10112000F894DEBF0FBECDBF8091330280931B02C7
:1011300080911A0280931C028091150280931D02F7
:101140008091340280931E0280E80E94F30F109277
:101150002F0281C080912F02882F90E0FC01EB5478
:10116000FF4F80810E940D1180E090E0A0EAB0E482
:10117000898F9A8FAB8FBC8F698D7A8D8B8D9C8D6B
:1011800020E030E04AEF54E40E942C14DC01CB0153
:101190008D8B9E8BAF8BB88F6D897E898F89988D53
:1011A00020E030E040E85FE30E94321688232CF410
:1011B00081E090E09C8B8B8B3FC06D897E898F890D
:1011C000988D20E03FEF4FE757E40E94D2151816A4
:1011D0004CF5698D7A8D8B8D9C8D20E030E040E25E
:1011E00051E40E942C14DC01CB01BC01CD010E9412
:1011F0005612DC01CB019C8B8B8B0FC088EC90E0EE
:101200009A8B898B89899A890197F1F79A8B898BB7
:101210008B899C8901979C8B8B8B8B899C890097F0
:1012200069F714C06D897E898F89988D0E94561246
:10123000DC01CB019C8B8B8B8B899C89988B8F8756
:101240008F8598890197F1F7988B8F8780912F026E
:101250008F5F80932F0280912F02803108F47ACF24
:1012600080EC0E94F30F10922F0281C080912F0218
:10127000882F90E0FC01E55EFD4F80810E940D11FA
:1012800080E090E0A0EAB0E48B879C87AD87BE87C2
:101290006B857C858D859E8520E030E04AEF54E4A7
:1012A0000E942C14DC01CB018F839887A987BA8711
:1012B0006F81788589859A8520E030E040E85FE39A
:1012C0000E94321688232CF481E090E09E838D8367
:1012D0003FC06F81788589859A8520E03FEF4FE791
:1012E00057E40E94D21518164CF56B857C858D85C8
:1012F0009E8520E030E040E251E40E942C14DC01A5
:10130000CB01BC01CD010E945612DC01CB019E83B2
:101310008D830FC088EC90E09C838B838B819C81B4
:101320000197F1F79C838B838D819E8101979E832A
:101330008D838D819E81009769F714C06F817885B8
:1013400089859A850E945612DC01CB019E838D838C
:101350008D819E819A83898389819A810197F1F792
:101360009A83898380912F028F5F80932F028091CF
:101370002F02843008F47ACF6C960FB6F894DEBF53
:101380000FBECDBFCF91DF910895DF93CF93CDB73F
:10139000DEB76C970FB6F894DEBF0FBECDBF80E806
:1013A0000E94F30F10922F0281C080912F02882F8C
:1013B00090E0FC01EB53FF4F80810E940D1180E013
:1013C00090E0A0EAB0E4898F9A8FAB8FBC8F698DD3
:1013D0007A8D8B8D9C8D20E030E04AEF54E40E94A2
:1013E0002C14DC01CB018D8B9E8BAF8BB88F6D895C
:1013F0007E898F89988D20E030E040E85FE30E948D
:10140000321688232CF481E090E09C8B8B8B3FC0BC
:101410006D897E898F89988D20E03FEF4FE757E4F3
:101420000E94D21518164CF5698D7A8D8B8D9C8D86
:1014300020E030E040E251E40E942C14DC01CB01BA
:10144000BC01CD010E945612DC01CB019C8B8B8B21
:101450000FC088EC90E09A8B898B89899A890197D3
:10146000F1F79A8B898B8B899C8901979C8B8B8B4D
:101470008B899C89009769F714C06D897E898F8953
:10148000988D0E945612DC01CB019C8B8B8B8B8933
:101490009C89988B8F878F8598890197F1F7988B16
:1014A0008F8780912F028F5F80932F0280912F0270
:1014B0008F3008F47ACF80EC0E94F30F10922F0245
:1014C00081C080912F02882F90E0FC01EB52FF4FEA
:1014D00080810E940D1180E090E0A0EAB0E48B874B
:1014E0009C87AD87BE876B857C858D859E8520E03A
:1014F00030E04AEF54E40E942C14DC01CB018F83CE
:101500009887A987BA876F81788589859A8520E031
:1015100030E040E85FE30E94321688232CF481E03B
:1015200090E09E838D833FC06F81788589859A8501
:1015300020E03FEF4FE757E40E94D21518164CF514
:101540006B857C858D859E8520E030E040E251E40E
:101550000E942C14DC01CB01BC01CD010E9456126B
:10156000DC01CB019E838D830FC088EC90E09C83CF
:101570008B838B819C810197F1F79C838B838D8179
:101580009E8101979E838D838D819E81009769F74F
:1015900014C06F81788589859A850E945612DC0176
:1015A000CB019E838D838D819E819A8389838981DE
:1015B0009A810197F1F79A83898380912F028F5F37
:1015C00080932F0280912F028F3008F47ACF6C968F
:1015D0000FB6F894DEBF0FBECDBFCF91DF91089557
:1015E0000F931F93DF93CF93CDB7DEB7C654D04090
:1015F0000FB6F894DEBF0FBECDBF0E94AC020E94B2
:10160000F40D0E940C0E0E9449000E948A030E9461
:101610007E000E9441010E949A00A8E3B0E0E8E346
:10162000F0E080818F7E8C9381E20E94650080E0F3
:101630000E946500A8E3B0E0E8E3F0E0808180610B
:101640008C93A8E3B0E0E8E3F0E080818F7E8C9398
:1016500081E30E94650080E20E946500A8E3B0E09B
:10166000E8E3F0E0808180618C93FE01ED5BFF4F49
:1016700080E090E0A0E8BFE380839183A283B383FE
:101680008E01015C1F4FFE01ED5BFF4F6081718198
:101690008281938120E030E04AEF54E40E942C14D0
:1016A000DC01CB01F80180839183A283B383FE0127
:1016B000FF96608171818281938120E030E040E873
:1016C0005FE30E94321688232CF481E090E09EAF05
:1016D0008DAF46C0FE01FF9660817181828193814A
:1016E00020E03FEF4FE757E40E94D215181664F54B
:1016F000FE01ED5BFF4F608171818281938120E06B
:1017000030E040E251E40E942C14DC01CB01BC012A
:10171000CD010E945612DC01CB019EAF8DAF0FC0F0
:1017200088EC90E09CAF8BAF8BAD9CAD0197F1F74F
:101730009CAF8BAF8DAD9EAD01979EAF8DAF8DAD44
:101740009EAD009769F716C0FE01FF96608171811A
:10175000828193810E945612DC01CB019EAF8DAF36
:101760008DAD9EAD9AAF89AF89AD9AAD0197F1F776
:101770009AAF89AF0E94C509E0E3F0E08081882F2D
:1017800090E080719070009721F081E680933202A2
:101790000CC0E0E3F0E08081882F90E080729070D0
:1017A000009751F382E68093320280E090E0A0E25D
:1017B000B1E48DAB9EABAFABB8AF6DA97EA98FA9DD
:1017C00098AD20E030E04AEF54E40E942C14DC0194
:1017D000CB0189AB9AABABABBCAB69A97AA98BA99E
:1017E0009CA920E030E040E85FE30E9432168823A5
:1017F0002CF481E090E098AB8FA73FC069A97AA94B
:101800008BA99CA920E03FEF4FE757E40E94D21537
:1018100018164CF56DA97EA98FA998AD20E030E08F
:1018200040E251E40E942C14DC01CB01BC01CD014B
:101830000E945612DC01CB0198AB8FA70FC088EC39
:1018400090E09EA78DA78DA59EA50197F1F79EA775
:101850008DA78FA598A9019798AB8FA78FA598A959
:10186000009769F714C069A97AA98BA99CA90E945D
:101870005612DC01CB0198AB8FA78FA598A99CA726
:101880008BA78BA59CA50197F1F79CA78BA70E941E
:101890000C0E80E090E0A0E2B1E48FA398A7A9A786
:1018A000BAA76FA178A589A59AA520E030E04AEFF4
:1018B00054E40E942C14DC01CB018BA39CA3ADA3A8
:1018C000BEA36BA17CA18DA19EA120E030E040E8E9
:1018D0005FE30E94321688232CF481E090E09AA303
:1018E00089A33FC06BA17CA18DA19EA120E03FEF09
:1018F0004FE757E40E94D21518164CF56FA178A552
:1019000089A59AA520E030E040E251E40E942C1421
:10191000DC01CB01BC01CD010E945612DC01CB01E0
:101920009AA389A30FC088EC90E098A38F8F8F8D26
:1019300098A10197F1F798A38F8F89A19AA1019798
:101940009AA389A389A19AA1009769F714C06BA1F2
:101950007CA18DA19EA10E945612DC01CB019AA30D
:1019600089A389A19AA19E8F8D8F8D8D9E8D0197C0
:10197000F1F79E8F8D8F0E94410680911402809313
:10198000600080913202813621F481E6809361000B
:1019900003C082E68093610081E090E09093310281
:1019A0008093300213C080913002909131022091D7
:1019B0006100FC01E05AFF4F20838091300290913A
:1019C000310201969093310280933002809130026F
:1019D000909131028032910530F380E20E94EF0154
:1019E0000E949A0080910E0290910F0201969093AE
:1019F0000F0280930E0280910E0290910F02F4E08C
:101A0000803B9F0709F0B9CF10920F0210920E028F
:101A100080E090E0AAE7B4E4898F9A8FAB8FBC8F07
:101A2000698D7A8D8B8D9C8D20E030E04AEF54E4F7
:101A30000E942C14DC01CB018D8B9E8BAF8BB88F59
:101A40006D897E898F89988D20E030E040E85FE3E2
:101A50000E94321688232CF481E090E09C8B8B8BC3
:101A60003FC06D897E898F89988D20E03FEF4FE7D9
:101A700057E40E94D21518164CF5698D7A8D8B8D1E
:101A80009C8D20E030E040E251E40E942C14DC0107
:101A9000CB01BC01CD010E945612DC01CB019C8B15
:101AA0008B8B0FC088EC90E09A8B898B89899A89FF
:101AB0000197F1F79A8B898B8B899C8901979C8B75
:101AC0008B8B8B899C89009769F714C06D897E89FF
:101AD0008F89988D0E945612DC01CB019C8B8B8BD9
:101AE0008B899C89988B8F878F8598890197F1F7CF
:101AF000988B8F8780E090E5A3E4B7E48B879C8781
:101B0000AD87BE876B857C858D859E8520E030E026
:101B10004AEF54E40E942C14DC01CB018F83988798
:101B2000A987BA876F81788589859A8520E030E01A
:101B300040E85FE30E94321688232CF481E090E0B5
:101B40009E838D833FC06F81788589859A8520E04B
:101B50003FEF4FE757E40E94D21518164CF56B85FE
:101B60007C858D859E8520E030E040E251E40E9436
:101B70002C14DC01CB01BC01CD010E945612DC010A
:101B8000CB019E838D830FC088EC90E09C838B8378
:101B90008B819C810197F1F79C838B838D819E8142
:101BA00001979E838D838D819E81009769F714C074
:101BB0006F81788589859A850E945612DC01CB0158
:101BC0009E838D838D819E819A83898389819A8169
:101BD0000197F1F79A838983A8E3B0E0E8E3F0E0A6
:101BE000808181608C93FFCFDF93CF93CDB7DEB739
:101BF000E5E3F0E01082E4E3F0E08FEF8083EBE3D5
:101C0000F0E01082AAE3B0E0EAE3F0E080818067D0
:101C10008C93CF91DF910895DF93CF93CDB7DEB74B
:101C2000E8970FB6F894DEBF0FBECDBF81E00E94EB
:101C3000F30F80E090E0A0EAB0E48DAB9EABAFABD9
:101C4000B8AF6DA97EA98FA998AD20E030E04AEF2A
:101C500054E40E942C14DC01CB0189AB9AABABABF2
:101C6000BCAB69A97AA98BA99CA920E030E040E827
:101C70005FE30E94321688232CF481E090E098AB59
:101C80008FA73FC069A97AA98BA99CA920E03FEF43
:101C90004FE757E40E94D21518164CF56DA97EA99E
:101CA0008FA998AD20E030E040E251E40E942C146E
:101CB000DC01CB01BC01CD010E945612DC01CB013D
:101CC00098AB8FA70FC088EC90E09EA78DA78DA53D
:101CD0009EA50197F1F79EA78DA78FA598A90197BB
:101CE00098AB8FA78FA598A9009769F714C069A929
:101CF0007AA98BA99CA90E945612DC01CB0198AB52
:101D00008FA78FA598A99CA78BA78BA59CA50197AA
:101D1000F1F79CA78BA788E30E94F30F80E090E087
:101D2000A0EAB0E48FA398A7A9A7BAA76FA178A546
:101D300089A59AA520E030E04AEF54E40E942C14D3
:101D4000DC01CB018BA39CA3ADA3BEA36BA17CA1A3
:101D50008DA19EA120E030E040E85FE30E943216B2
:101D600088232CF481E090E09AA389A33FC06BA163
:101D70007CA18DA19EA120E03FEF4FE757E40E9498
:101D8000D21518164CF56FA178A589A59AA520E063
:101D900030E040E251E40E942C14DC01CB01BC0194
:101DA000CD010E945612DC01CB019AA389A30FC07A
:101DB00088EC90E098A38F8F8F8D98A10197F1F711
:101DC00098A38F8F89A19AA101979AA389A389A12A
:101DD0009AA1009769F714C06BA17CA18DA19EA167
:101DE0000E945612DC01CB019AA389A389A19AA172
:101DF0009E8F8D8F8D8D9E8D0197F1F79E8F8D8F8C
:101E00008CE00E94F30F80E090E0A0EAB0E4898FBC
:101E10009A8FAB8FBC8F698D7A8D8B8D9C8D20E0D6
:101E200030E04AEF54E40E942C14DC01CB018D8B8E
:101E30009E8BAF8BB88F6D897E898F89988D20E0BE
:101E400030E040E85FE30E94321688232CF481E002
:101E500090E09C8B8B8B3FC06D897E898F89988D9C
:101E600020E03FEF4FE757E40E94D21518164CF5DB
:101E7000698D7A8D8B8D9C8D20E030E040E251E4BD
:101E80000E942C14DC01CB01BC01CD010E94561232
:101E9000DC01CB019C8B8B8B0FC088EC90E09A8B84
:101EA000898B89899A890197F1F79A8B898B8B891C
:101EB0009C8901979C8B8B8B8B899C89009769F7F8
:101EC00014C06D897E898F89988D0E945612DC011D
:101ED000CB019C8B8B8B8B899C89988B8F878F8573
:101EE00098890197F1F7988B8F8786E00E94F30F0E
:101EF00080E090E0A0EAB0E48B879C87AD87BE8746
:101F00006B857C858D859E8520E030E04AEF54E42A
:101F10000E942C14DC01CB018F839887A987BA8794
:101F20006F81788589859A8520E030E040E85FE31D
:101F30000E94321688232CF481E090E09E838D83EA
:101F40003FC06F81788589859A8520E03FEF4FE714
:101F500057E40E94D21518164CF56B857C858D854B
:101F60009E8520E030E040E251E40E942C14DC0128
:101F7000CB01BC01CD010E945612DC01CB019E8336
:101F80008D830FC088EC90E09C838B838B819C8138
:101F90000197F1F79C838B838D819E8101979E83AE
:101FA0008D838D819E81009769F714C06F8178853C
:101FB00089859A850E945612DC01CB019E838D8310
:101FC0008D819E819A83898389819A810197F1F716
:101FD0009A838983E8960FB6F894DEBF0FBECDBF13
:101FE000CF91DF910895DF93CF93CDB7DEB76D9793
:101FF0000FB6F894DEBF0FBECDBF8D8F0E942712A3
:10200000ABE3B0E0EBE3F0E080818F7E8C93ABE359
:10201000B0E0EBE3F0E080818F7D8C93ABE3B0E048
:10202000EBE3F0E0808180648C9380E090E0A0EAB4
:10203000B0E4898F9A8FAB8FBC8F698D7A8D8B8D31
:102040009C8D20E030E04AEF54E40E942C14DC0127
:10205000CB018D8B9E8BAF8BB88F6D897E898F89DD
:10206000988D20E030E040E85FE30E94321688233C
:102070002CF481E090E09C8B8B8B3FC06D897E8936
:102080008F89988D20E03FEF4FE757E40E94D215EB
:1020900018164CF5698D7A8D8B8D9C8D20E030E083
:1020A00040E251E40E942C14DC01CB01BC01CD01C3
:1020B0000E945612DC01CB019C8B8B8B0FC088ECED
:1020C00090E09A8B898B89899A890197F1F79A8B8D
:1020D000898B8B899C8901979C8B8B8B8B899C89A5
:1020E000009769F714C06D897E898F89988D0E9449
:1020F0005612DC01CB019C8B8B8B8B899C89988B36
:102100008F878F8598890197F1F7988B8F87E5E303
:10211000F0E08D8D8083ABE3B0E0EBE3F0E0808115
:102120008F7B8C9380E090E0A0EAB0E48B879C8763
:10213000AD87BE876B857C858D859E8520E030E0F0
:102140004AEF54E40E942C14DC01CB018F83988762
:10215000A987BA876F81788589859A8520E030E0E4
:1021600040E85FE30E94321688232CF481E090E07F
:102170009E838D833FC06F81788589859A8520E015
:102180003FEF4FE757E40E94D21518164CF56B85C8
:102190007C858D859E8520E030E040E251E40E9400
:1021A0002C14DC01CB01BC01CD010E945612DC01D4
:1021B000CB019E838D830FC088EC90E09C838B8342
:1021C0008B819C810197F1F79C838B838D819E810C
:1021D00001979E838D838D819E81009769F714C03E
:1021E0006F81788589859A850E945612DC01CB0122
:1021F0009E838D838D819E819A83898389819A8133
:102200000197F1F79A8389836D960FB6F894DEBF34
:102210000FBECDBFCF91DF910895DF93CF93CDB7A0
:10222000DEB76D970FB6F894DEBF0FBECDBF8D8FB2
:102230000E942712ABE3B0E0EBE3F0E08081806125
:102240008C93ABE3B0E0EBE3F0E080818F7D8C9387
:10225000ABE3B0E0EBE3F0E0808180648C9380E05E
:1022600090E0A0EAB0E4898F9A8FAB8FBC8F698D24
:102270007A8D8B8D9C8D20E030E04AEF54E40E94F3
:102280002C14DC01CB018D8B9E8BAF8BB88F6D89AD
:102290007E898F89988D20E030E040E85FE30E94DE
:1022A000321688232CF481E090E09C8B8B8B3FC00E
:1022B0006D897E898F89988D20E03FEF4FE757E445
:1022C0000E94D21518164CF5698D7A8D8B8D9C8DD8
:1022D00020E030E040E251E40E942C14DC01CB010C
:1022E000BC01CD010E945612DC01CB019C8B8B8B73
:1022F0000FC088EC90E09A8B898B89899A89019725
:10230000F1F79A8B898B8B899C8901979C8B8B8B9E
:102310008B899C89009769F714C06D897E898F89A4
:10232000988D0E945612DC01CB019C8B8B8B8B8984
:102330009C89988B8F878F8598890197F1F7988B67
:102340008F87E5E3F0E08D8D8083ABE3B0E0EBE3D6
:10235000F0E080818F7B8C9380E090E0A0EAB0E495
:102360008B879C87AD87BE876B857C858D859E8599
:1023700020E030E04AEF54E40E942C14DC01CB0151
:102380008F839887A987BA876F81788589859A8591
:1023900020E030E040E85FE30E94321688232CF40E
:1023A00081E090E09E838D833FC06F817885898531
:1023B0009A8520E03FEF4FE757E40E94D2151816A8
:1023C0004CF56B857C858D859E8520E030E040E274
:1023D00051E40E942C14DC01CB01BC01CD010E9410
:1023E0005612DC01CB019E838D830FC088EC90E0F8
:1023F0009C838B838B819C810197F1F79C838B83DA
:102400008D819E8101979E838D838D819E81009712
:1024100069F714C06F81788589859A850E94561264
:10242000DC01CB019E838D838D819E819A8389837C
:1024300089819A810197F1F79A8389836D960FB606
:10244000F894DEBF0FBECDBFCF91DF910895DF932B
:10245000CF93CDB7DEB7E4E3F0E01082ABE3B0E0BA
:10246000EBE3F0E080818F7E8C93ABE3B0E0EBE3B5
:10247000F0E0808180628C93ABE3B0E0EBE3F0E0CE
:10248000808180648C93E3E3F0E080818823DCF337
:10249000ABE3B0E0EBE3F0E080818F7B8C93E4E38F
:1024A000F0E08FEF8083CF91DF910895EF92FF925C
:1024B0000F931F937B018C0120E030E040E05FE44C
:1024C0000E94021688238CF0C801B70120E030E09A
:1024D00040E05FE40E94CE130E94C0169B01AC0155
:1024E000205030404040504806C0C801B7010E940B
:1024F000C0169B01AC01B901CA011F910F91FF9059
:10250000EF900895A0E0B0E0E8E8F2E10C94B5198E
:10251000DC012B01FA019C91923008F439C1EB01E6
:102520008881823008F433C1943069F4843009F032
:102530002FC111969C9111978981981709F428C190
:10254000A5EEB0E025C1843009F421C18230A9F4A0
:10255000923009F01DC19A01AD0188E0EA010990AD
:10256000AE01E90109929E018150C1F7E201898122
:1025700011969C918923818308C1923009F407C187
:1025800012962D903C901397EB018A819B811496B3
:10259000AD90BD90CD90DC901797EC80FD800E81C2
:1025A0001F819101281B390BB90137FF04C0662731
:1025B0007727621B730B603271050CF061C0121635
:1025C00013066CF537014801062E04C096948794D3
:1025D000779467940A94D2F721E030E040E050E02D
:1025E00004C0220F331F441F551F6A95D2F7215094
:1025F0003040404050402E213F214023512321159F
:1026000031054105510521F021E030E040E050E086
:1026100079018A01E628F728082919293CC0232BCB
:10262000D1F1260E371E35014601062E04C09694C0
:102630008794779467940A94D2F721E030E040E0E1
:1026400050E004C0220F331F441F551F6A95D2F774
:1026500021503040404050402A213B214C215D21F7
:10266000211531054105510521F021E030E040E020
:1026700050E059016A01A628B728C828D9280BC0FC
:10268000821593052CF01C01AA24BB24650103C00C
:10269000EE24FF24870111969C91D20111968C9112
:1026A000981709F445C0992339F0A80197012A1910
:1026B0003B094C095D0906C0A60195012E193F0989
:1026C000400B510B57FD08C01182338222822483B4
:1026D0003583468357831DC081E081833382228204
:1026E00088279927DC01821B930BA40BB50B8483ED
:1026F0009583A683B7830DC0220F331F441F551F38
:102700002483358346835783828193810197938302
:1027100082832481358146815781DA01C90101977D
:10272000A109B1098F5F9F4FAF4FBF4328F30BC083
:10273000918333822282EA0CFB1C0C1D1D1DE48256
:10274000F5820683178383E0808324813581468167
:10275000578157FF1AC0C901AA2797FDA095BA2F24
:1027600081709070A070B0705695479537952795F9
:10277000822B932BA42BB52B84839583A683B783BD
:1027800082819381019693838283DF0101C0D2010C
:10279000CD01CDB7DEB7E2E10C94D119A0E2B0E0F3
:1027A000E4EDF3E10C94C11969837A838B839C83F4
:1027B0002D833E834F835887E9E0EE2EF12CEC0EFB
:1027C000FD1ECE010196B7010E94B1188E010F5E69
:1027D0001F4FCE010596B8010E94B1188A8991E079
:1027E00089278A8BC701B801AE01475E5F4F0E94FF
:1027F00082120E94DC17A096E6E00C94DD19A0E29C
:10280000B0E0E5E0F4E10C94C11969837A838B832D
:102810009C832D833E834F835887F9E0EF2EF12C64
:10282000EC0EFD1ECE010196B7010E94B1188E017B
:102830000F5E1F4FCE010596B8010E94B118C70167
:10284000B801AE01475E5F4F0E9482120E94DC1702
:10285000A096E6E00C94DD19A0E2B0E0E2E3F4E13A
:102860000C94B51969837A838B839C832D833E8373
:102870004F835887CE010196BE01675F7F4F0E944C
:10288000B118CE010596BE016F5E7F4F0E94B11850
:102890009985923088F089898230C8F0943019F493
:1028A000823051F404C0843029F4923081F485EEF2
:1028B00090E0C6C0923049F420E09A858A89981346
:1028C00021E02A87CE010996BBC0823049F420E07E
:1028D0009A858A89981321E02A8BCE014196B0C04F
:1028E0002D843E844F8458886D887E888F88988C8C
:1028F000EE24FF248701AA24BB24650140E050E0B8
:1029000060E070E0E0E0F0E0C10181709070892B40
:10291000E9F0E60CF71C081D191D9A01AB012A0D00
:102920003B1D4C1D5D1D80E090E0A0E0B0E0E61492
:10293000F7040805190520F481E090E0A0E0B0E07C
:10294000BA01A901480F591F6A1F7B1FAA0CBB1CA3
:10295000CC1CDD1C97FE08C081E090E0A0E0B0E058
:10296000A82AB92ACA2ADB2A3196E032F10549F0B1
:10297000660C771C881C991C5694479437942794AE
:10298000C3CFFA85EA892B893C898B859C85280FE2
:10299000391F2E5F3F4F17C0CA0181709070892B7D
:1029A00061F016950795F794E79480E090E0A0E039
:1029B000B0E8E82AF92A0A2B1B2B769567955795DC
:1029C00047952F5F3F4F77FDE7CF0CC0440F551F52
:1029D000661F771F17FD4160EE0CFF1C001F111FC3
:1029E00021503040403090E0590790E0690790E472
:1029F000790760F32B8F3C8FDB01CA018F779070D2
:102A0000A070B07080349105A105B10561F447FD57
:102A10000AC0E114F1040105110529F0405C5F4F83
:102A20006F4F7F4F40781A8EFE1711F081E08A8F2A
:102A30004D8F5E8F6F8F78A383E0898FCE0149968B
:102A40000E94DC17A096E2E10C94D119A8E1B0E055
:102A5000ECE2F5E10C94BD1969837A838B839C8346
:102A60002D833E834F835887B9E0EB2EF12CEC0E7B
:102A7000FD1ECE010196B7010E94B1188E010F5EB6
:102A80001F4FCE010596B8010E94B118298522304A
:102A900008F47EC03989323010F4B8017CC08A85D0
:102AA0009A8989278A87243011F0223031F423173C
:102AB00009F06EC065EE70E06EC0343039F41D86EA
:102AC0001E861F86188A1C861B8604C0323021F49D
:102AD00084E08987B7015FC02B853C858B899C8901
:102AE000281B390B3C872B87ED84FE840F851889C2
:102AF000AD88BE88CF88D88CEA14FB040C051D0570
:102B000040F4EE0CFF1C001F111F215030403C8789
:102B10002B8720E030E040E050E080E090E0A0E053
:102B2000B0E460E070E0EA14FB040C051D0540F021
:102B3000282B392B4A2B5B2BEA18FB080C091D09A3
:102B4000B695A79597958795EE0CFF1C001F111F52
:102B50006F5F7F4F6F31710531F7DA01C9018F77F0
:102B60009070A070B07080349105A105B10561F43A
:102B700027FD0AC0E114F1040105110529F0205CCC
:102B80003F4F4F4F5F4F20782D873E874F87588BA1
:102B9000BE01675F7F4FCB010E94DC176896EAE0B9
:102BA0000C94D919A8E1B0E0E8EDF5E10C94C11955
:102BB00069837A838B839C832D833E834F835887DD
:102BC00089E0E82EF12CEC0EFD1ECE010196B70136
:102BD0000E94B1188E010F5E1F4FCE010596B801FD
:102BE0000E94B1188985823040F08989823028F0AE
:102BF000C701B8010E94291901C08FEF6896E6E06D
:102C00000C94DD19A8E1B0E0E8E0F6E10C94C119FC
:102C100069837A838B839C832D833E834F8358877C
:102C200089E0E82EF12CEC0EFD1ECE010196B701D5
:102C30000E94B1188E010F5E1F4FCE010596B8019C
:102C40000E94B1188985823040F08989823028F04D
:102C5000C701B8010E94291901C08FEF6896E6E00C
:102C60000C94DD19A8E1B0E0E8E3F6E10C94C11999
:102C700069837A838B839C832D833E834F8358871C
:102C800089E0E82EF12CEC0EFD1ECE010196B70175
:102C90000E94B1188E010F5E1F4FCE010596B8013C
:102CA0000E94B1188985823040F08989823028F0ED
:102CB000C701B8010E94291901C081E06896E6E0C9
:102CC0000C94DD19A8E0B0E0E8E6F6E10C94BE193A
:102CD0009B01AC0183E08983DA01C9018827B7FD34
:102CE00083959927AA27BB27B82E211531054105C1
:102CF000510519F482E089833AC08823A9F0203075
:102D000080E0380780E0480780E8580729F460E051
:102D100070E080E09FEC30C0EE24FF248701E21ACF
:102D2000F30A040B150B02C079018A018EE1C82E4B
:102D3000D12CDC82CB82ED82FE820F831887C80102
:102D4000B7010E948D1701971816190684F4082EF2
:102D500004C0EE0CFF1C001F111F0A94D2F7ED8275
:102D6000FE820F831887C81AD90ADC82CB82BA8206
:102D7000CE0101960E94DC172896E9E00C94DA193E
:102D8000ACE0B0E0E6ECF6E10C94C51969837A8317
:102D90008B839C83CE010196BE016B5F7F4F0E94A7
:102DA000B1188D81823061F1823050F1843021F48C
:102DB0008E81882351F12EC02F81388537FD20C0A8
:102DC0006E812F3131051CF06623F9F023C08EE1AE
:102DD00090E0821B930B29853A854B855C8504C066
:102DE00056954795379527958A95D2F76623B1F082
:102DF00050954095309521953F4F4F4F5F4F0EC0F6
:102E000020E030E040E050E009C02FEF3FEF4FEF0F
:102E10005FE704C020E030E040E050E8B901CA01BB
:102E20002C96E2E00C94E119A8E0B0E0EAE1F7E1C9
:102E30000C94BD197B018C0161157105810591050B
:102E400019F482E0898360C083E089838EE1C82E13
:102E5000D12CDC82CB82ED82FE820F831887C801E1
:102E6000B7010E948D17FC013197F7FF3BC0222765
:102E700033272E1B3F0B57016801022E04C0D69446
:102E8000C794B794A7940A94D2F740E050E060E06A
:102E900070E081E090E0A0E0B0E004C0880F991FEE
:102EA000AA1FBB1F2A95D2F70197A109B1098E214C
:102EB0009F21A023B1230097A105B10521F041E096
:102EC00050E060E070E04A295B296C297D294D8340
:102ED0005E836F8378878EE190E08E1B9F0B9C83CF
:102EE0008B8312C0309781F00E2E04C0EE0CFF1CB5
:102EF000001F111F0A94D2F7ED82FE820F831887FC
:102F0000CE1ADF0ADC82CB821A82CE0101960E94A1
:102F1000DC172896EAE00C94D919EF92FF920F93F0
:102F20001F937B018C0180E0E81680E0F80681E0C9
:102F3000080780E0180788F48FEFE816F104010510
:102F4000110531F028F088E090E0A0E0B0E017C073
:102F500080E090E0A0E0B0E012C080E0E81680E001
:102F6000F80680E0080781E0180728F088E190E083
:102F7000A0E0B0E004C080E190E0A0E0B0E020E29A
:102F800030E040E050E0281B390B4A0B5B0B04C0DB
:102F900016950795F794E7948A95D2F7F701E351D0
:102FA000FF4F8081281B310941095109C9011F9137
:102FB0000F91FF90EF900895DF92EF92FF920F93A1
:102FC0001F93FC01E480F58006811781D180808108
:102FD000823048F480E090E0A0E1B0E0E82AF92AED
:102FE0000A2B1B2BA5C0843009F49FC0823021F42A
:102FF000EE24FF24870105C0E114F1040105110549
:1030000019F4E0E0F0E096C0628173819FEF6238CE
:1030100079070CF05BC022E83FEF261B370B2A3103
:1030200031052CF020E030E040E050E02AC0B8014B
:10303000A701022E04C076956795579547950A9487
:10304000D2F781E090E0A0E0B0E004C0880F991FC3
:10305000AA1FBB1F2A95D2F70197A109B1098E219A
:103060009F21A023B1230097A105B10521F081E0A4
:1030700090E0A0E0B0E09A01AB01282B392B4A2B5D
:103080005B2BDA01C9018F779070A070B07080342B
:103090009105A105B10539F427FF09C0205C3F4F18
:1030A0004F4F5F4F04C0215C3F4F4F4F5F4FE0E0F9
:1030B000F0E02030A0E03A07A0E04A07A0E45A0779
:1030C00010F0E1E0F0E079018A0127C06038710575
:1030D00064F5FB01E158FF4FD801C7018F7790706D
:1030E000A070B07080349105A105B10539F4E7FEF8
:1030F0000DC080E490E0A0E0B0E004C08FE390E079
:10310000A0E0B0E0E80EF91E0A1F1B1F17FF05C064
:1031100016950795F794E794319687E016950795ED
:10312000F794E7948A95D1F705C0EE24FF24870130
:10313000EFEFF0E06E2F679566276795902F9F77EA
:10314000D794DD24D7948E2F8695492F462B582F60
:103150005D29B701CA011F910F91FF90EF90DF9099
:103160000895FC01DB01408151812281622F6F773C
:1031700070E0221F2227221F9381892F880F822B24
:10318000282F30E0991F9927991F11969C9311972A
:1031900021153105A9F5411551056105710511F498
:1031A00082E037C082E89FEF13969C938E9312972C
:1031B0009A01AB0167E0220F331F441F551F6A9528
:1031C000D1F783E08C930DC0220F331F441F551F8E
:1031D00012968D919C911397019713969C938E93C1
:1031E0001297203080E0380780E0480780E45807D5
:1031F00058F314962D933D934D935C931797089530
:103200002F3F310579F4411551056105710519F418
:1032100084E08C93089564FF03C081E08C9312C016
:103220001C9210C02F57304013963C932E93129748
:1032300083E08C9387E0440F551F661F771F8A95A4
:10324000D1F7706414964D935D936D937C931797AB
:1032500008951F93DC01FB019C91923008F447C054
:103260008081823008F443C0943051F411961C914F
:10327000843099F58181682F70E0611B71093FC02E
:10328000843021F0923031F48230B9F18181882389
:1032900089F12DC011961C9111978230F1F0818136
:1032A0001817D9F412962D913C911397828193812E
:1032B0008217930794F028173907BCF014968D9164
:1032C0009D910D90BC91A02D24813581468157811F
:1032D000281739074A075B0718F4112341F00AC081
:1032E00082179307A407B50740F4112319F061E092
:1032F00070E005C06FEF7FEF02C060E070E0CB01CF
:103300001F910895991B79E004C0991F961708F042
:10331000961B881F7A95C9F78095089597FB092E0B
:1033200007260AD077FD04D00CD006D000201AF46E
:10333000709561957F4F0895F6F7909581959F4F11
:103340000895AA1BBB1B51E107C0AA1FBB1FA617EC
:10335000B70710F0A61BB70B881F991F5A95A9F73E
:1033600080959095BC01CD0108952F923F924F9288
:103370005F926F927F928F929F92AF92BF92CF9205
:10338000DF92EF92FF920F931F93CF93DF93CDB70E
:10339000DEB7CA1BDB0B0FB6F894DEBF0FBECDBF86
:1033A00009942A88398848885F846E847D848C8457
:1033B0009B84AA84B984C884DF80EE80FD800C8160
:1033C0001B81AA81B981CE0FD11D0FB6F894DEBF43
:0C33D0000FBECDBFED010895F894FFCFB3
:1033DC0001020304000000000000000000000000D7
:1033EC0000000000000000000000000000000000D1
:1033FC00E7E7E7E7E74472696E6B20496E666F207A
:10340C003A20202020436F6C612073656C656374D7
:10341C006564202020436F666665652073656C6566
:10342C0063746564205468652064697374616E63A9
:10343C00652069733A506C656173652073656C65C2
:10344C006374202020746865206472696E6B3A2066
:10345C0020202020200000000000000000000102BD
:10346C000203030303040404040404040405050513
:10347C0005050505050505050505050505060606ED
:10348C0006060606060606060606060606060606D0
:10349C0006060606060606060606060606070707BD
:1034AC0007070707070707070707070707070707A0
:1034BC000707070707070707070707070707070790
:1034CC000707070707070707070707070707070780
:1034DC00070707070707070707070707070808086D
:1034EC000808080808080808080808080808080850
:1034FC000808080808080808080808080808080840
:10350C00080808080808080808080808080808082F
:10351C00080808080808080808080808080808081F
:10352C00080808080808080808080808080808080F
:10353C0008080808080808080808080808080808FF
:10354C0008080808080808080808080808080808EF
:0E355C000808080808080808080808080800F9
:00000001FF
